:020000040000FA
:020000000A28CC
:040002000034003492
:08000800F100030EF2000B19D8
:100010006F2B0A2883120313810190309800363029
:100020009F0000308C0000308B008501860102307B
:10003000BC00831603132030980019309900023059
:100040008600273085008F3081008E1583120313C0
:10005000861796233008831603139900831203131F
:100060008B168B17B401BB013B08FA3C031C3B28E1
:060070001F1F34283B288D
:0A0076008312031318129030980053
:10008000300883160313990020309800831203135D
:10009000181218161A081A08861364008C1E4D28A8
:1000A000861718193B2898183B281A08B100BB017D
:1000B0003B08643C031C3B288C1E582886131819E7
:1000C0003B2898183B281A08B2008617BB013B084A
:1000D000643C031C3B288C1E6728861318193B2898
:1000E00098183B281A08B30086173108003C0319FA
:1000F000BC2B3108013C0319BD2B3108453C0319C9
:10010000C02B3108083C03199A2A3108093C03190D
:100110009F2A31080A3C0319A42A3108103C03190C
:10012000A92A3108113C0319B12A3108123C0319DC
:10013000C32A3108133C0319E62A3108C03C0319CD
:100140000A293108C13C03191D293108C23C031991
:1001500030293108C33C031943293108C43C031931
:100160004D293108C53C031960293108C63C0319E3
:1001700073293108C73C031986293108C83C031983
:100180008D293108C93C031997293108CA3C031944
:10019000A1293108D03C03193F2B3108D13C031968
:1001A000422B3108D23C0319452B3108D33C0319AB
:1001B000482B3108D43C03194B2B3108D53C03198B
:1001C0004E2B3108D63C0319512B3108D73C03196B
:1001D000542B3108D83C0319572B3108D93C03194B
:1001E0005A2B3108DA3C03195D2B3108DB3C03192B
:1001F000602B3108DC3C0319632B3108DD3C03190B
:10020000662B3108DE3C0319692B3108DF3C0319EA
:040210006C2B3B28F0
:0C0214003208A000831603139A0020306B
:10022000203C9B00A7233308A100831603139A00E8
:100230002030213C9B00A7233B283208A2008316D4
:1002400003139A002030223C9B00A7233308A3000D
:10025000831603139A002030233C9B00A7233B28DE
:100260003208A400831603139A002030243C9B001C
:10027000A7233308A500831603139A002030253CDA
:100280009B00A7233B283308A600831603139A007C
:100290002030263C9B00A7233B283208A70083166A
:1002A00003139A002030273C9B00A7233308A800A3
:1002B000831603139A002030283C9B00A7233B2879
:1002C0003208A900831603139A002030293C9B00B2
:1002D000A7233308AA00831603139A0020302A3C70
:1002E0009B00A7233B283208AB00831603139A0018
:1002F00020302B3C9B00A7233308AC00831603134C
:100300009A0020302C3C9B00A7233B288316031324
:100310008613831203133308AD003308AE0083162F
:1003200003139A0020302E3C9B00A7233B28330860
:10033000AF00831603139A0020302F3C9B00A723A5
:100340003B283308B000831603139A002030303C5A
:060350009B00A7233B28DF
:0A0356001F1F01348B1337309F0086
:1003600005120622B21B0622B21F1722321B0622DA
:10037000321F1722B21A0622B21E1722321A062282
:10038000321E1722B2190622B21D17223219062276
:10039000321D1722B2180622B21C1722321806226A
:1003A000321C1722B31B0622B31F1722331B06224F
:1003B000331F1722B31A0622B31E1722331A06223E
:1003C000331E1722B3190622B31D17223319062232
:1003D000331D1722B3180622B31C17223318062226
:1003E000331C17228611F429861622088F00230851
:1003F0008E00B523051636309F0024088F0025088F
:100400008E00B523861186128B1700348612082AB7
:10041000861520088F0021088E00B5238611102A2A
:10042000861620088F0021088E00B523080086114B
:10043000192A861620088F0021088E00B5238612FF
:10044000212A861520088F0021088E00B523080078
:10045000BB013B082602031C722A1F1B292A8B138F
:1004600027088F0028088E00B5237522F41B722AF6
:100470007522F41B722A7419B317741DB3137522F5
:10048000F41B722A74193317741D33137522F41B6D
:10049000722A7419B316741DB3127522F41B722AD2
:1004A00074193316741D33127522F41B722A7419D1
:1004B000B315741DB3117522F41B722A7419331508
:1004C000741D33117522F41B722A7419B314741D30
:1004D000B3107522F41B722A74193314741D33106F
:1004E0008B170034B3018B17FE34013081000B11E0
:1004F0001F1F7F2A1F1F842A0B1D7A2A982A1F1B61
:10050000842A0B1D7F2A982A861729088F002A081B
:100510008E00B5238613F4011F1B7415AD188617C2
:100520002B088F002C088E00B523AD188613080009
:04053000F4170800B4
:0C0534003208B5003308B6003B2832083E
:10054000B7003308B8003B283208B9003308BA00B6
:100550003B2834193B283208B2003308B300AB21E2
:100560003B2834193B283208B2003308B300AB21D2
:10057000BB012E083B02031CB92A3208B200330823
:10058000B300AB213B2834193B28B4103208B20029
:100590003308B300AB212822F400F4080319D52A4C
:1005A000B414F401740899003B28FF30F400740877
:1005B00099003C308F00AF308E00B5233C308F0067
:1005C000AF308E00B523330899003B2834193B28FF
:1005D0003508B2003608B300AB213B082F07F40002
:1005E0003B087402031DF02A3708B2003708B30035
:1005F000AB213B082F07F4003B087402031DFC2AC3
:0C0600003908B2003908B300AB213B28D8
:04060C0034193B283A
:100610008030BE00BF01C001F801F701F601B13022
:10062000B2003E087804B300B330B2003F0877044C
:10063000B300B730B20040087604B300A930B2006E
:10064000B3013308031D292B0310C00DBF0DBE0DD0
:100650000F2B0310BE0CBF0CC00C3E08F8043F0863
:10066000F7044008F604BE01BF010130C0000F2BA3
:0E0670007808BE007708BF007608C0000800BA
:02067E00200852
:1006800099003B28210899003B28220899003B2823
:10069000230899003B28240899003B282508990045
:1006A0003B28260899003B28270899003B28280862
:1006B00099003B28290899003B282A0899003B28E3
:1006C0002B0899003B282C0899003B282D089900FD
:0E06D0003B282E0899003B282F0899003B2854
:0206DE00831285
:1006E0000313C6308102BD0A05303D02031C862B70
:1006F000BD01BB0A3419862B1F1FBC0A1F1BBC037C
:100700003C0803193C143C0903198C2B0B11720E85
:100710008300F10E710E0900341537309F00051269
:0C0720000B11720E8300F10E710E090027
:04072C00831603131A
:10073000203084009B011C141A088000840A9B0A44
:0E07400031300402031C9B2B831203130800AC
:02074E008B130B
:100750001C1555309D00AA309D009C148B179C18C9
:0A076000AF2B1C11831203130800D5
:06076A00013090000C10AC
:080770000C1CB82B90010800DD
:080778000028340899003B2819
:06078000320899003B283D
:0407860099000800CE
:02400E00353F3C
:10420000FE008000FA00FF00FE007C000A00FE00B5
:10421000D300FF00B000FD00D80000000B000B0031
:104220001900FF00FF00FF00FF00FF00FF00FF007C
:10423000FF00FF00FF00FF00FF00FF00FF00FF0086
:06424000FF00FF00FF007B
:00000001FF
