:020000040000FA
:020000000D28C9
:040002000034003492
:08000800F100030EF200720882
:100010008300F10E710E09000D28831603130230C0
:100020008600273085008312031307309F00831258
:1000300003138617851586150000000000000000D8
:1000400000000000000086138511861100000000EA
:1000500000000000000000000000192883120313B4
:1000600081019030980036309F0000308C000030C5
:100070008B00850186010230BC00831603132030FB
:1000800098001830990002308600273085008F30A4
:1000900081008E15831203138617B423300883164C
:1000A00003139900831203138B168B17B401BB0142
:0E00B0003B08FA3C031C5F281F1F58285F28DE
:0200BE008312AB
:1000C0000313181290309800300883160313990018
:1000D0002030980083120313181218161A081A08F1
:1000E000861364008C1E7128861718195F289818CB
:1000F0005F281A08B100BB013B08643C031C5F2861
:100100008C1E7C2818195F2898185F281A08B200DE
:100110008613BB013B08643C031C5F288C1E8A28A5
:1001200018195F2898185F281A08B3008617310835
:10013000003C0319DA2B3108013C0319DB2B310891
:10014000083C0319B82A3108093C0319BD2A3108B3
:100150000A3C0319C22A3108103C0319C72A310886
:10016000113C0319CF2A3108123C0319E12A310846
:10017000133C0319042B3108C03C0319282931080A
:10018000C13C03193B293108C23C03194E293108EF
:10019000C33C031961293108C43C03196B29310898
:1001A000C53C03197E293108C63C03199129310841
:1001B000C73C0319A4293108C83C0319AB293108ED
:1001C000C93C0319B5293108CA3C0319BF293108B4
:1001D000D03C03195D2B3108D13C0319602B310849
:1001E000D23C0319632B3108D33C0319662B310829
:1001F000D43C0319692B3108D53C03196C2B310809
:10020000D63C03196F2B3108D73C0319722B3108E8
:10021000D83C0319752B3108D93C0319782B3108C8
:10022000DA3C03197B2B3108DB3C03197E2B3108A8
:10023000DC3C0319812B3108DD3C0319842B310888
:10024000DE3C0319872B3108DF3C03198A2B5F281A
:100250003208A000831603139A002030203C9B0034
:10026000C5233308A100831603139A002030213CD4
:100270009B00C5235F283208A200831603139A004F
:100280002030223C9B00C5233308A30083160313B0
:100290009A002030233C9B00C5235F283208A4002D
:1002A000831603139A002030243C9B00C523330897
:1002B000A500831603139A002030253C9B00C5231C
:1002C0005F283308A600831603139A002030263CCB
:1002D0009B00C5235F283208A700831603139A00EA
:1002E0002030273C9B00C5233308A8008316031346
:1002F0009A002030283C9B00C5235F283208A900C3
:10030000831603139A002030293C9B00C523330831
:10031000AA00831603139A0020302A3C9B00C523B1
:100320005F283208AB00831603139A0020302B3C61
:100330009B00C5233308AC00831603139A002030BA
:100340002C3C9B00C5235F2883160313861383125E
:1003500003133308AD003308AE00831603139A006D
:1003600020302E3C9B00C5235F283308AF00831646
:1003700003139A0020302F3C9B00C5235F283308CD
:10038000B000831603139A002030303C9B00C52335
:020390005F28E4
:0E0392001F1F01348B1337309F0005122422E9
:1003A000B21B2422B21F3522321B2422321F3522D7
:1003B000B21A2422B21E3522321A2422321E3522CB
:1003C000B2192422B21D352232192422321D3522BF
:1003D000B2182422B21C352232182422321C3522B3
:1003E000B31B2422B31F3522331B2422331F352293
:1003F000B31A2422B31E3522331A2422331E352287
:10040000B3192422B31D352233192422331D35227A
:10041000B3182422B31C352233182422331C35226E
:100420000612122A861622088F0023088E00D32374
:10043000051636309F0024088F0025088E00D32330
:10044000061286128B1700348612262A06162008FA
:100450008F0021088E00D32306122E2A861620082C
:100460008F0021088E00D32308000612372A861633
:1004700020088F0021088E00D32386123F2A0616FB
:0C04800020088F0021088E00D323080004
:04048C00BB013B086D
:100490002602031C902A1F1B472A8B1327088F0054
:1004A00028088E00D3239322F41B902A9322F41B56
:1004B000902A7419B317741DB3139322F41B902A56
:1004C00074193317741D33139322F41B902A741973
:1004D000B316741DB3129322F41B902A74193316A9
:1004E000741D33129322F41B902A7419B315741DD2
:1004F000B3119322F41B902A74193315741D331110
:100500009322F41B902A7419B314741DB310932210
:10051000F41B902A74193314741D33108B17003494
:10052000B3018B17FE34013081000B111F1F9D2A70
:100530001F1FA22A0B1D982AB62A1F1BA22A0B1DB9
:100540009D2AB62A861729088F002A088E00D323F1
:100550008613F4011F1B7415AD1886172B088F0026
:100560002C088E00D323AD1886130800F41708005A
:100570003208B5003308B6005F283208B7003308E8
:10058000B8005F283208B9003308BA005F28341970
:100590005F283208B2003308B300C9215F2834193C
:1005A0005F283208B2003308B300C921BB012E080E
:1005B0003B02031CD72A3208B2003308B300C9211A
:1005C0005F2834195F28B4103208B2003308B30032
:1005D000C9214622F400F4080319F32AB414F401E3
:1005E000740899005F28FF30F400740899003C30CB
:1005F0008F00AF308E00D3233C308F00AF308E00A1
:10060000D323330899005F2834195F283508B200D6
:100610003608B300C9213B082F07F4003B087402D9
:10062000031D0E2B3708B2003708B300C9213B0861
:100630002F07F4003B087402031D1A2B3908B2007F
:080640003908B300C9215F284D
:0806480034195F288030BE0068
:10065000BF01C001F801F701F601B130B2003E0858
:100660007804B300B330B2003F087704B300B7306A
:10067000B20040087604B300A930B200B3013308D9
:10068000031D472B0310C00DBF0DBE0D2D2B0310F6
:10069000BE0CBF0CC00C3E08F8043F08F70440082D
:1006A000F604BE01BF010130C0002D2B7808BE004A
:0A06B0007708BF007608C0000800BC
:0606BA00200899005F28F2
:1006C000210899005F28220899005F2823089900D3
:1006D0005F28240899005F28250899005F282608CC
:1006E00099005F28270899005F28280899005F284B
:1006F000290899005F282A0899005F282B0899008B
:100700005F282C0899005F282D0899005F282E0883
:0A07100099005F282F0899005F2868
:06071A0083120313C63038
:100720008102BD0A05303D02031CA42BBD01BB0A9A
:100730003419A42B1F1FBC0A1F1BBC033C08031940
:100740003C143C090319AA2B0B11720E8300F10E05
:10075000710E0900341537309F0005120B11720E0F
:080760008300F10E710E090087
:08076800831603132030840006
:100770009B011C141A088000840A9B0A3130040271
:0A078000031CB92B831203130800B9
:06078A008B131C15553015
:100790009D00AA309D009C148B179C18CD2B1C111A
:0607A000831203130800A0
:0A07A600013090000C100C1CD62B43
:0407B00090010800AC
:0807B4000028340899005F28B9
:0407BC009900080098
:02400E00313F40
:10420000FE008000FA00FF00FE007C000A00FE00B5
:10421000D300FF00B000FD00D80000000B000B0031
:104220001800FF00FF00FF00FF00FF00FF00FF007D
:10423000FF00FF00FF00FF00FF00FF00FF00FF0086
:06424000FF00FF00FF007B
:00000001FF
