:020000040000FA
:040000000034003494
:0C0004008312031318129030980030088B
:1000100083160313990020309800831203131812DB
:1000200018161A081A08861364008C1E14288617DE
:1000300018190228981802281A08B100BB013B08B9
:10004000643C031C02288C1E1F28181902289818CB
:1000500002281A08B2008613BB013B08643C031C4B
:1000600002288C1E2D2818190228981802281A0810
:10007000B30086173108003C0319D52B3108013C29
:100080000319D62B3108083C03195B2A3108093CB7
:100090000319602A31080A3C0319652A3108103C0B
:1000A00003196A2A3108113C0319722A3108123CDB
:1000B0000319842A3108133C0319A72A3108C03CCC
:1000C0000319CB283108C13C0319DE283108C23C92
:1000D0000319F1283108C33C031904293108C43C31
:1000E00003190E293108C53C031921293108C63CE2
:1000F000031934293108C73C031947293108C83C82
:1001000003194E293108C93C031958293108CA3C42
:10011000031962293108D03C0319522B3108D13C14
:100120000319552B3108D23C0319582B3108D33C05
:1001300003195B2B3108D43C03195E2B3108D53CE5
:100140000319612B3108D63C0319642B3108D73CC5
:100150000319672B3108D83C03196A2B3108D93CA5
:1001600003196D2B3108DA3C0319702B3108DB3C85
:100170000319732B3108DC3C0319762B3108DD3C65
:100180000319792B3108DE3C03197C2B3108DF3C45
:0601900003197F2B022879
:0A0196003208A000831603139A003C
:1001A0002030203C9B00BA233308A10083160313A0
:1001B0009A002030213C9B00BA2302283208A2007A
:1001C000831603139A002030223C9B00BA23330885
:1001D000A300831603139A002030233C9B00BA230C
:1001E00002283208A400831603139A002030243C0E
:1001F0009B00BA233308A500831603139A0020300E
:10020000253C9B00BA2302283308A600831603135B
:100210009A002030263C9B00BA2302283208A7000F
:10022000831603139A002030273C9B00BA2333081F
:10023000A800831603139A002030283C9B00BA23A1
:1002400002283208A900831603139A002030293CA3
:100250009B00BA233308AA00831603139A002030A8
:100260002A3C9B00BA2302283208AB0083160313F2
:100270009A0020302B3C9B00BA233308AC00831635
:1002800003139A0020302C3C9B00BA2302288316CB
:1002900003138613831203133308AD003308AE0033
:1002A000831603139A0020302E3C9B00BA230228A9
:1002B0003308AF00831603139A0020302F3C9B00B5
:1002C000BA2302283308B000831603139A002030A3
:0802D000303C9B00BA23022818
:0802D8001F1F01348B133730A6
:1002E0009F000512C721B21BC721B21FD821321BA4
:1002F000C721321FD821B21AC721B21ED821321A03
:10030000C721321ED821B219C721B21DD8213219F6
:10031000C721321DD821B218C721B21CD8213218EA
:10032000C721321CD821B31BC721B31FD821331BCF
:10033000C721331FD821B31AC721B31ED821331ABE
:10034000C721331ED821B319C721B31DD8213319B2
:10035000C721331DD821B318C721B31CD8213318A6
:10036000C721331CD8210612B529861622088F0012
:1003700023088E00C823051636309F0024088F00FE
:1003800025088E00C823061286128B1700348612A9
:10039000C929061620088F0021088E00C8230612DE
:1003A000D129861620088F0021088E00C823080056
:1003B0000612DA29861620088F0021088E00C8232D
:1003C0008612E229061620088F0021088E00C82315
:0203D000080023
:0E03D200BB013B082602031C332A1F1BEA292D
:1003E0008B1327088F0028088E00C8233622F41BA1
:1003F000332A3622F41B332A7419B317741DB3132E
:100400003622F41B332A74193317741D3313362222
:10041000F41B332A7419B316741DB3123622F41B5D
:10042000332A74193316741D33123622F41B332AFF
:100430007419B315741DB3113622F41B332A7419C1
:100440003315741D33113622F41B332A7419B31477
:10045000741DB3103622F41B332A74193314741D1F
:1004600033108B170034B3018B17FE340130810039
:100470000B111F1F402A1F1F452A0B1D3B2A592AFB
:100480001F1B452A0B1D402A592A861729088F0051
:100490002A088E00C8238613F4011F1B7415AD189B
:1004A00086172B088F002C088E00C823AD188613E2
:0604B0000800F41708002B
:0A04B6003208B5003308B600022832
:1004C0003208B7003308B80002283208B9003308F0
:1004D000BA000228341902283208B2003308B300E7
:1004E0006C210228341902283208B2003308B30004
:1004F0006C21BB012E083B02031C7A2A3208B20091
:100500003308B3006C21022834190228B4103208D1
:10051000B2003308B3006C21E921F400F408031998
:10052000962AB414F401740899000228FF30F400EC
:10053000740899003C308F00AF308E00C8233C30E7
:100540008F00AF308E00C823330899000228341979
:1005500002283508B2003608B3006C213B082F078B
:10056000F4003B087402031DB12A3708B2003708B3
:10057000B3006C213B082F07F4003B087402031DF5
:0E058000BD2A3908B2003908B3006C210228E8
:02058E008316D2
:1005900003130230860027308500831203130730CF
:1005A0009F0083120313861785158615000000002F
:1005B0000000000000000000000086138511861175
:1005C0000000000000000000000000000000D32A2E
:1005D0008312031381019030980036309F00003061
:1005E0008C0000308B00850186010230BC00831630
:1005F000031320309800183099000230860027300D
:1006000085008F3081008E15831203138617A9236E
:100610003008831603139900831203138B168B176C
:10062000B401BB013B08FA3C031C02281F1F122B1C
:0206300002289E
:0E063200341902288030BE00BF01C001F8015B
:10064000F701F601B130B2003E087804B300B330D0
:10065000B2003F087704B300B730B2004008760418
:10066000B300A930B200B3013308031D3C2B0310C3
:10067000C00DBF0DBE0D222B0310BE0CBF0CC00C55
:100680003E08F8043F08F7044008F604BE01BF0125
:100690000130C000222B7808BE007708BF00760822
:0406A000C00008008E
:0C06A40020089900022821089900022873
:1006B000220899000228230899000228240899009A
:1006C00002282508990002282608990002282708F0
:1006D0009900022828089900022829089900022870
:1006E0002A08990002282B08990002282C08990052
:1006F00002282D08990002282E08990002282F08A8
:040700009900022832
:0C07040083120313C6308102BD0A0530C9
:100710003D02031C992BBD01BB0A3419992B1F1FE5
:10072000BC0A1F1BBC033C0803193C143C090319F9
:100730009F2B0B11720E8300F10E710E0900341500
:1007400037309F0005120B11720E8300F10E710EEF
:0207500009009E
:0E07520083160313203084009B011C141A0828
:100760008000840A9B0A31300402031CAE2B8312E2
:040770000313080067
:0C0774008B131C1555309D00AA309D0011
:100780009C148B179C18C22B1C1183120313080096
:0E079000013090000C100C1CCB2B90010800C7
:02079E00F10068
:0A07A000030EF2000B19822BC72A8A
:0607AA000028340899004C
:0207B00002281D
:0407B20099000800A2
:0207B600C72A50
:02400E003D3F34
:10420000FE008000FA00FF00FE007C000A00FE00B5
:10421000D300FF00B000FD00D80000000B000B0031
:104220001800FF00FF00FF00FF00FF00FF00FF007D
:10423000FF00FF00FF00FF00FF00FF00FF00FF0086
:06424000FF00FF00FF007B
:00000001FF
