:020000040000FA
:040000000034003494
:0C0004008312031318129030980030088B
:1000100083160313990020309800831203131812DB
:1000200018161A081A0864008C1E132818190228BA
:10003000981802281A08B100BB013B08643C031C55
:1000400002288C1E1D2818190228981802281A0840
:10005000B200BB013B08643C031C02288C1E2A280A
:1000600018190228981802281A08B3003108003C11
:100070000319AF2B3108013C0319B02B3108083CA0
:100080000319572A3108093C03195C2A31080A3C34
:100090000319612A3108103C0319662A3108113C02
:1000A00003196E2A3108123C0319802A3108133CC7
:1000B0000319A32A3108C03C0319C7283108C13CE1
:1000C0000319DA283108C23C0319ED283108C33C72
:1000D000031900293108C43C03190A293108C53C19
:1000E00003191D293108C63C031930293108C73CC2
:1000F000031943293108C83C03194A293108C93C6E
:10010000031954293108CA3C03195E293108D03C2F
:100110000319FC2A3108D13C0319FF2A3108D23CCB
:100120000319022B3108D33C0319052B3108D43CA9
:100130000319082B3108D53C03190B2B3108D63C89
:1001400003190E2B3108D73C0319112B3108D83C69
:100150000319142B3108D93C0319172B3108DA3C49
:1001600003191A2B3108DB3C03191D2B3108DC3C29
:100170000319202B3108DD3C0319232B3108DE3C09
:0E0180000319262B3108DF3C0319292B022816
:02018E00320835
:10019000A000831603139A002030203C9B00942378
:1001A0003308A100831603139A002030213C9B00E2
:1001B000942302283208A200831603139A002030E9
:1001C000223C9B0094233308A300831603139A0058
:1001D0002030233C9B00942302283208A40083167D
:1001E00003139A002030243C9B0094233308A5007D
:1001F000831603139A002030253C9B009423022889
:100200003308A600831603139A002030263C9B0077
:10021000942302283208A700831603139A00203083
:10022000273C9B0094233308A800831603139A00ED
:100230002030283C9B00942302283208A900831612
:1002400003139A002030293C9B0094233308AA0012
:10025000831603139A0020302A3C9B009423022823
:100260003208AB00831603139A0020302B3C9B000E
:1002700094233308AC00831603139A0020302C3CDF
:100280009B009423022883160313861383120313FF
:100290003308AD003308AE00831603139A002030F4
:1002A0002E3C9B00942302283308AF0083160313CF
:1002B0009A0020302F3C9B00942302283308B00082
:1002C000831603139A002030303C9B0094230228AD
:1002D0001F1F01348B1337309F000512C321B21B3F
:1002E000C321B21FD421321BC321321FD421B21A21
:1002F000C321B21ED421321AC321321ED421B21915
:10030000C321B21DD4213219C321321DD421B21808
:10031000C321B21CD4213218C321321CD421B31BF7
:10032000C321B31FD421331BC321331FD421B31ADC
:10033000C321B31ED421331AC321331ED421B319D0
:10034000C321B31DD4213319C321331DD421B318C4
:10035000C321B31CD4213318C321331CD42106126A
:10036000B129861622088F0023088E00A2230516C5
:1003700036309F0024088F0025088E00A223061225
:1003800086128B1700348612C529061620088F00A6
:1003900021088E00A2230612CD29861620088F0080
:1003A00021088E00A22308000612D62986162008EE
:1003B0008F0021088E00A2238612DE29061620084F
:0A03C0008F0021088E00A223080020
:0603CA00BB013B08260206
:1003D000031C2F2A1F1BE6298B1327088F002808D0
:1003E0008E00A2233222F31B2F2A3222F31B2F2A44
:1003F0007319B317731DB3133222F31B2F2A73190A
:100400003317731D33133222F31B2F2A7319B316BC
:10041000731DB3123222F31B2F2A73193316731D67
:1004200033123222F31B2F2A7319B315731DB31124
:100430003222F31B2F2A73193315731D3311322205
:10044000F31B2F2A7319B314731DB3103222F31B3D
:100450002F2A73193314731D33108B170034B30113
:100460008B17FE34013081000B111F1F3C2A1F1F08
:10047000412A0B1D372A552A1F1B412A0B1D3C2AD6
:10048000552A861729088F002A088E00A223861372
:10049000F3011F1B7315AD1886172B088F002C084E
:0E04A0008E00A223AD1886130800F317080083
:0204AE00320812
:1004B000B5003308B60002283208B7003308B80088
:1004C00002283208B9003308BA0002283419022879
:1004D0003208B2003308B300682102283419022818
:1004E0003208B2003308B3006821BB012E083B027A
:1004F000031C762A3208B2003308B30068210228B0
:1005000034190228B4103208B2003308B30068214D
:10051000E521F300F3080319922AB414F3017308D8
:1005200099000228FF30F300730899003C308F00D7
:10053000AF308E00A2233C308F00AF308E00A2235C
:10054000330899000228341902283508B200360809
:10055000B30068213B082F07F3003B087302031D1B
:10056000AD2A3708B2003708B30068213B082F07CF
:10057000F3003B087302031DB92A3908B200390899
:06058000B300682102280F
:0A058600341902288030BE00BF01C6
:10059000C001F701F601F501B130B2003E08770461
:1005A000B300B330B2003F087604B300B730B200F6
:1005B00040087504B300A930B200B3013308031D2D
:1005C000E62A0310C00DBF0DBE0DCC2A0310BE0CD1
:1005D000BF0CC00C3E08F7043F08F6044008F504C1
:1005E000BE01BF010130C000CC2A7708BE007608EA
:0805F000BF007508C0000800FF
:0805F8002008990002282108E7
:10060000990002282208990002282308990002284C
:100610002408990002282508990002282608990034
:10062000022827089900022828089900022829088A
:10063000990002282A08990002282B08990002280C
:100640002C08990002282D08990002282E089900EC
:0806500002282F08990002287E
:080658008312031381019030AD
:10066000980036309F0000308C0000308B008501F0
:1006700086010230BC008316031320309800183026
:10068000990002308600273085008F3081008E155A
:1006900083120313832330088316031399008312F4
:1006A00003138B168B17B401BB013B08FA3C031CE8
:0806B00002281F1F552B022830
:0806B80083120313C630810216
:1006C000BD0A05303D02031C732BBD01BB0A341962
:1006D000732B1F1FBC0A1F1BBC033C0803193C14CF
:1006E0003C090319792B0B11710E8300F00E700E6B
:1006F0000900341537309F0005120B11710E83006D
:06070000F00E700E09006E
:0A07060083160313203084009B01CA
:100710001C141A088000840A9B0A31300402031C4E
:08072000882B8312031308006B
:080728008B131C1555309D00D8
:10073000AA309D009C148B179C189C2B1C118312B3
:040740000313080097
:0C074400013090000C100C1CA52B900143
:0207500008009F
:0C075200F000030EF1000B195C2B2C2BA7
:02075E00002871
:0607600034089900022894
:0407660099000800EE
:02076A002C2B36
:02400E003C3F35
:10420000FE008000FA00FF00FE007C000A00FE00B5
:10421000D300FF00B000FD00D80000000B000B0031
:104220001800FF00FF00FF00FF00FF00FF00FF007D
:10423000FF00FF00FF00FF00FF00FF00FF00FF0086
:06424000FF00FF00FF007B
:00000001FF
