:020000040000FA
:020000000A28CC
:040002000034003492
:08000800F000030EF1000B19DA
:10001000A02B0A28831203138101903098003630F8
:100020009F0000308C0000308B008501860102307B
:10003000BC00831603132030980019309900023059
:100040008600273085008F3081008E1583120313C0
:100050008617C723300883160313990083120313EE
:100060008B168B17B401BB013B08FA3C031C3B28E1
:060070001F1F34283B288D
:0A0076008312031318129030980053
:10008000300883160313990020309800831203135D
:10009000181218161A081A08861364008C1E4D28A8
:1000A000861718193B2898183B281A08B100BB017D
:1000B0003B08643C031C3B288C1E582886131819E7
:1000C0003B2898183B281A08B2008617BB013B084A
:1000D000643C031C3B288C1E6728861318193B2898
:1000E00098183B281A08B30086173108003C0319FA
:1000F000ED2B3108013C0319EE2B3108453C031967
:10010000F12B3108083C0319BC293108093C0319BB
:10011000C12931080A3C0319C6293108103C0319CA
:10012000CD293108113C0319D8293108123C031993
:10013000132A3108133C0319ED293108303C031907
:10014000CB293108313C0319D6293108323C031937
:10015000362A3108333C0319EB293B283108C03CCF
:1001600003191B293108C13C03192E293108C23C4F
:10017000031941293108C33C031954293108C43CEF
:1001800003195E293108C53C031971293108C63CA1
:10019000031984293108C73C031997293108C83C41
:1001A00003199E293108C93C0319A8293108CA3C02
:1001B0000319B2293108D03C0319702B3108D13C06
:1001C0000319732B3108D23C0319762B3108D33C29
:1001D0000319792B3108D43C03197C2B3108D53C09
:1001E00003197F2B3108D63C0319822B3108D73CE9
:1001F0000319852B3108D83C0319882B3108D93CC9
:1002000003198B2B3108DA3C03198E2B3108DB3CA8
:100210000319912B3108DC3C0319942B3108DD3C88
:100220000319972B3108DE3C03199A2B3108DF3C68
:0602300003199D2B3B2881
:0A0236003208A000831603139A009B
:100240002030203C9B00D8233308A10083160313E1
:100250009A002030213C9B00D8233B283208A20082
:10026000831603139A002030223C9B00D8233308C6
:10027000A300831603139A002030233C9B00D8234D
:100280003B283208A400831603139A002030243C34
:100290009B00D8233308A500831603139A0020304F
:1002A000253C9B00D8233B283308A6008316031364
:1002B0009A002030263C9B00D8233B283208A70018
:1002C000831603139A002030273C9B00D823330861
:1002D000A800831603139A002030283C9B00D823E3
:1002E0003B283208A900831603139A002030293CCA
:1002F0009B00D8233308AA00831603139A002030EA
:100300002A3C9B00D8233B283208AB0083160313FA
:100310009A0020302B3C9B00D8233308AC00831676
:1003200003139A0020302C3C9B00D8233B288316D3
:1003300003138613831203133308AD003308AE0092
:10034000831603139A0020302E3C9B00D8233B28B1
:100350003308AF00831603139A0020302F3C9B0014
:10036000D8233B283308B000831603139A002030AB
:08037000303C9B00D8233B2820
:080378003208B5003308B6009D
:100380003B283208B7003308B8003B283208B900D0
:100390003308BA003B284114CE29411034190E2AE3
:1003A0003208B2003308B30048220E2A4114D9297A
:1003B000411034190E2A3208B2003308B300482223
:1003C000BB012E083B02031CE1293208B2003308AE
:1003D000B30048220E2A4114EE29411034190E2A86
:1003E0003508B2003608B30048223B082F07F30057
:1003F0003B087302031DF8293708B2003708B30021
:1004000048223B082F07F3003B087302031D042A10
:100410003908B2003908B30048220E2A411C3B2893
:10042000340899003B2834193B28B4103208B20034
:100430003308B3004822C522F300F3080319252A24
:10044000B414F301730899003B28FF30F3007308DC
:1004500099003C308F00AF308E00E6233C308F0097
:10046000AF308E00E623330899003B2834193B282F
:10047000B4103208B2003308B3004822C522F3009A
:10048000F3080319452AB4143B28330899003B2884
:100490001F1F01348B1337309F000512A322B21B9C
:1004A000A322B21FB422321BA322321FB422B21ADB
:1004B000A322B21EB422321AA322321EB422B219CF
:1004C000A322B21DB4223219A322321DB422B218C3
:1004D000A322B21CB4223218A322321CB422B31BB2
:1004E000A322B31FB422331BA322331FB422B31A97
:1004F000A322B31EB422331AA322331EB422B3198B
:10050000A322B31DB4223319A322331DB422B3187E
:10051000A322B31CB4223318A322331CB4228611A5
:10052000912A861622088F0023088E00E6230516DE
:1005300036309F0024088F0025088E00E6238611A0
:1005400086128B1700348612A52A861520088F0084
:1005500021088E00E6238611AD2A861620088F001A
:1005600021088E00E62308008611B62A8616200888
:100570008F0021088E00E6238612BE2A86152008E9
:0A0580008F0021088E00E62308001A
:06058A00BB013B08260244
:10059000031C0F2B1F1BC62A8B1327088F0028084C
:1005A0008E00E6231223F31B0F2B1223F31B0F2BBA
:1005B0007319B317731DB3131223F31B0F2B731986
:1005C0003317731D33131223F31B0F2B7319B31639
:1005D000731DB3121223F31B0F2B73193316731DE4
:1005E00033121223F31B0F2B7319B315731DB311A1
:1005F0001223F31B0F2B73193315731D33111223A1
:10060000F31B0F2B7319B314731DB3101223F31BB9
:100610000F2B73193314731D33108B170034B30170
:100620008B17FE34013081000B111F1F1C2B1F1F65
:10063000212B0B1D172B352B1F1B212B0B1D1C2BAF
:10064000352B861729088F002A088E00E62386138B
:10065000F3011F1B7315AD1886172B088F002C088C
:0E0660008E00E623AD1886130800F31708007D
:02066E0034193D
:100670003B288030BE00BF01C001F701F601F50143
:10068000B130B2003E087704B300B330B2003F0887
:100690007604B300B730B20040087504B300A93047
:1006A000B200B3013308031D5A2B0310C00DBF0D58
:1006B000BE0D402B0310BE0CBF0CC00C3E08F7044F
:1006C0003F08F6044008F504BE01BF010130C00038
:1006D000402B7708BE007608BF007508C0000800F0
:1006E000200899003B28210899003B2822089900FE
:1006F0003B28230899003B28240899003B2825081B
:1007000099003B28260899003B28270899003B2898
:10071000280899003B28290899003B282A089900B5
:100720003B282B0899003B282C0899003B282D08D2
:1007300099003B282E0899003B282F0899003B2858
:1007400083120313C6308102BD0A05303D02031C2B
:10075000B72BBD01BB0A3419B72B1F1FBC0A1F1BC7
:10076000BC033C0803193C143C090319BD2B0B11B5
:10077000710E8300F00E700E0900341537309F00A3
:0E07800005120B11710E8300F00E700E0900B1
:02078E008316D0
:100790000313203084009B011C141A088000840A73
:1007A0009B0A31300402031CCC2B83120313080074
:1007B0008B131C1555309D00AA309D009C148B177F
:0C07C0009C18E02B1C118312031308008E
:0407CC000130900068
:0A07D0000C100C1CE92B900108002E
:0607DA000028340899001C
:0807E0003B28320899003B2878
:0407E800990008006C
:02400E00353F3C
:10420000FE008000FA00FF00FE007C000A00FE00B5
:10421000D300FF00B000FD00D80000000B000B0031
:104220001900FF00FF00FF00FF00FF00FF00FF007C
:10423000FF00FF00FF00FF00FF00FF00FF00FF0086
:06424000FF00FF00FF007B
:00000001FF
